{
  "contractName": "ParkingSystem",
  "abi": [
    {
      "inputs": [],
      "stateMutability": "nonpayable",
      "type": "constructor"
    },
    {
      "inputs": [
        {
          "internalType": "address",
          "name": "",
          "type": "address"
        }
      ],
      "name": "hasParked",
      "outputs": [
        {
          "internalType": "bool",
          "name": "",
          "type": "bool"
        }
      ],
      "stateMutability": "view",
      "type": "function",
      "constant": true
    },
    {
      "inputs": [],
      "name": "owner",
      "outputs": [
        {
          "internalType": "address",
          "name": "",
          "type": "address"
        }
      ],
      "stateMutability": "view",
      "type": "function",
      "constant": true
    },
    {
      "inputs": [
        {
          "internalType": "enum ParkingSystem.VehicleType",
          "name": "",
          "type": "uint8"
        },
        {
          "internalType": "enum ParkingSystem.LaneType",
          "name": "",
          "type": "uint8"
        }
      ],
      "name": "parkingSlots",
      "outputs": [
        {
          "internalType": "uint256",
          "name": "availableSlots",
          "type": "uint256"
        },
        {
          "internalType": "uint256",
          "name": "pricePerHour",
          "type": "uint256"
        }
      ],
      "stateMutability": "view",
      "type": "function",
      "constant": true
    },
    {
      "inputs": [
        {
          "internalType": "address",
          "name": "",
          "type": "address"
        }
      ],
      "name": "vehicleEntries",
      "outputs": [
        {
          "internalType": "enum ParkingSystem.VehicleType",
          "name": "vehicleType",
          "type": "uint8"
        },
        {
          "internalType": "enum ParkingSystem.LaneType",
          "name": "laneType",
          "type": "uint8"
        },
        {
          "internalType": "uint256",
          "name": "entryTime",
          "type": "uint256"
        },
        {
          "internalType": "bool",
          "name": "isParked",
          "type": "bool"
        }
      ],
      "stateMutability": "view",
      "type": "function",
      "constant": true
    },
    {
      "inputs": [
        {
          "internalType": "enum ParkingSystem.VehicleType",
          "name": "_vehicleType",
          "type": "uint8"
        },
        {
          "internalType": "enum ParkingSystem.LaneType",
          "name": "_laneType",
          "type": "uint8"
        }
      ],
      "name": "viewAvailableSlots",
      "outputs": [
        {
          "internalType": "uint256",
          "name": "",
          "type": "uint256"
        }
      ],
      "stateMutability": "view",
      "type": "function",
      "constant": true
    },
    {
      "inputs": [
        {
          "internalType": "enum ParkingSystem.VehicleType",
          "name": "_vehicleType",
          "type": "uint8"
        },
        {
          "internalType": "enum ParkingSystem.LaneType",
          "name": "_laneType",
          "type": "uint8"
        }
      ],
      "name": "enterParking",
      "outputs": [],
      "stateMutability": "nonpayable",
      "type": "function"
    },
    {
      "inputs": [],
      "name": "exitParking",
      "outputs": [],
      "stateMutability": "payable",
      "type": "function",
      "payable": true
    }
  ],
  "bytecode": "0x608060405234801562000010575f80fd5b50335f806101000a81548173ffffffffffffffffffffffffffffffffffffffff021916908373ffffffffffffffffffffffffffffffffffffffff1602179055506040518060400160405280600a8152602001670de0b6b3a764000081525060015f80600281111562000087576200008662000442565b5b60028111156200009c576200009b62000442565b5b81526020019081526020015f205f806001811115620000c057620000bf62000442565b5b6001811115620000d557620000d462000442565b5b81526020019081526020015f205f820151815f015560208201518160010155905050604051806040016040528060058152602001671bc16d674ec8000081525060015f8060028111156200012e576200012d62000442565b5b600281111562000143576200014262000442565b5b81526020019081526020015f205f60018081111562000167576200016662000442565b5b60018111156200017c576200017b62000442565b5b81526020019081526020015f205f820151815f015560208201518160010155905050604051806040016040528060148152602001671bc16d674ec8000081525060015f60016002811115620001d657620001d562000442565b5b6002811115620001eb57620001ea62000442565b5b81526020019081526020015f205f8060018111156200020f576200020e62000442565b5b600181111562000224576200022362000442565b5b81526020019081526020015f205f820151815f0155602082015181600101559050506040518060400160405280600a8152602001673782dace9d90000081525060015f600160028111156200027e576200027d62000442565b5b600281111562000293576200029262000442565b5b81526020019081526020015f205f600180811115620002b757620002b662000442565b5b6001811115620002cc57620002cb62000442565b5b81526020019081526020015f205f820151815f015560208201518160010155905050604051806040016040528060058152602001674563918244f4000081525060015f60028081111562000325576200032462000442565b5b60028111156200033a576200033962000442565b5b81526020019081526020015f205f8060018111156200035e576200035d62000442565b5b600181111562000373576200037262000442565b5b81526020019081526020015f205f820151815f015560208201518160010155905050604051806040016040528060028152602001678ac7230489e8000081525060015f600280811115620003cc57620003cb62000442565b5b6002811115620003e157620003e062000442565b5b81526020019081526020015f205f60018081111562000405576200040462000442565b5b60018111156200041a576200041962000442565b5b81526020019081526020015f205f820151815f0155602082015181600101559050506200046f565b7f4e487b71000000000000000000000000000000000000000000000000000000005f52602160045260245ffd5b6110aa806200047d5f395ff3fe60806040526004361061006f575f3560e01c80638da5cb5b1161004d5780638da5cb5b146100e1578063a093fee91461010b578063c0adf2951461014a578063d88992d8146101875761006f565b806311340e751461007357806358df689b1461007d57806369fd7fa3146100b9575b5f80fd5b61007b6101c3565b005b348015610088575f80fd5b506100a3600480360381019061009e9190610ad5565b610640565b6040516100b09190610b2b565b60405180910390f35b3480156100c4575f80fd5b506100df60048036038101906100da9190610ad5565b6106b4565b005b3480156100ec575f80fd5b506100f56109d0565b6040516101029190610b83565b60405180910390f35b348015610116575f80fd5b50610131600480360381019061012c9190610bc6565b6109f3565b6040516101419493929190610cc4565b60405180910390f35b348015610155575f80fd5b50610170600480360381019061016b9190610ad5565b610a43565b60405161017e929190610d07565b60405180910390f35b348015610192575f80fd5b506101ad60048036038101906101a89190610bc6565b610a6e565b6040516101ba9190610d2e565b60405180910390f35b60025f3373ffffffffffffffffffffffffffffffffffffffff1673ffffffffffffffffffffffffffffffffffffffff1681526020019081526020015f206002015f9054906101000a900460ff1661024f576040517f08c379a000000000000000000000000000000000000000000000000000000000815260040161024690610da1565b60405180910390fd5b5f60025f3373ffffffffffffffffffffffffffffffffffffffff1673ffffffffffffffffffffffffffffffffffffffff1681526020019081526020015f206040518060800160405290815f82015f9054906101000a900460ff1660028111156102bb576102ba610bf1565b5b60028111156102cd576102cc610bf1565b5b81526020015f820160019054906101000a900460ff1660018111156102f5576102f4610bf1565b5b600181111561030757610306610bf1565b5b815260200160018201548152602001600282015f9054906101000a900460ff16151515158152505090505f8160400151426103429190610dec565b90505f6001610e10836103559190610e4c565b61035f9190610e7c565b90505f60015f855f0151600281111561037b5761037a610bf1565b5b600281111561038d5761038c610bf1565b5b81526020019081526020015f205f856020015160018111156103b2576103b1610bf1565b5b60018111156103c4576103c3610bf1565b5b81526020019081526020015f2060010154826103e09190610eaf565b905080341015610425576040517f08c379a000000000000000000000000000000000000000000000000000000000815260040161041c90610f60565b60405180910390fd5b5f8054906101000a900473ffffffffffffffffffffffffffffffffffffffff1673ffffffffffffffffffffffffffffffffffffffff166108fc8290811502906040515f60405180830381858888f19350505050158015610487573d5f803e3d5ffd5b50803411156104e0573373ffffffffffffffffffffffffffffffffffffffff166108fc82346104b69190610dec565b90811502906040515f60405180830381858888f193505050501580156104de573d5f803e3d5ffd5b505b6001805f865f015160028111156104fa576104f9610bf1565b5b600281111561050c5761050b610bf1565b5b81526020019081526020015f205f8660200151600181111561053157610530610bf1565b5b600181111561054357610542610bf1565b5b81526020019081526020015f205f015f8282546105609190610e7c565b9250508190555060025f3373ffffffffffffffffffffffffffffffffffffffff1673ffffffffffffffffffffffffffffffffffffffff1681526020019081526020015f205f8082015f6101000a81549060ff02191690555f820160016101000a81549060ff0219169055600182015f9055600282015f6101000a81549060ff021916905550505f60035f3373ffffffffffffffffffffffffffffffffffffffff1673ffffffffffffffffffffffffffffffffffffffff1681526020019081526020015f205f6101000a81548160ff02191690831515021790555050505050565b5f60015f84600281111561065757610656610bf1565b5b600281111561066957610668610bf1565b5b81526020019081526020015f205f83600181111561068a57610689610bf1565b5b600181111561069c5761069b610bf1565b5b81526020019081526020015f205f0154905092915050565b60035f3373ffffffffffffffffffffffffffffffffffffffff1673ffffffffffffffffffffffffffffffffffffffff1681526020019081526020015f205f9054906101000a900460ff161561073e576040517f08c379a000000000000000000000000000000000000000000000000000000000815260040161073590610fc8565b60405180910390fd5b5f60015f84600281111561075557610754610bf1565b5b600281111561076757610766610bf1565b5b81526020019081526020015f205f83600181111561078857610787610bf1565b5b600181111561079a57610799610bf1565b5b81526020019081526020015f205f0154116107ea576040517f08c379a00000000000000000000000000000000000000000000000000000000081526004016107e190611056565b60405180910390fd5b604051806080016040528083600281111561080857610807610bf1565b5b81526020018260018111156108205761081f610bf1565b5b81526020014281526020016001151581525060025f3373ffffffffffffffffffffffffffffffffffffffff1673ffffffffffffffffffffffffffffffffffffffff1681526020019081526020015f205f820151815f015f6101000a81548160ff0219169083600281111561089757610896610bf1565b5b02179055506020820151815f0160016101000a81548160ff021916908360018111156108c6576108c5610bf1565b5b0217905550604082015181600101556060820151816002015f6101000a81548160ff021916908315150217905550905050600160035f3373ffffffffffffffffffffffffffffffffffffffff1673ffffffffffffffffffffffffffffffffffffffff1681526020019081526020015f205f6101000a81548160ff0219169083151502179055506001805f84600281111561096357610962610bf1565b5b600281111561097557610974610bf1565b5b81526020019081526020015f205f83600181111561099657610995610bf1565b5b60018111156109a8576109a7610bf1565b5b81526020019081526020015f205f015f8282546109c59190610dec565b925050819055505050565b5f8054906101000a900473ffffffffffffffffffffffffffffffffffffffff1681565b6002602052805f5260405f205f91509050805f015f9054906101000a900460ff1690805f0160019054906101000a900460ff1690806001015490806002015f9054906101000a900460ff16905084565b6001602052815f5260405f20602052805f5260405f205f9150915050805f0154908060010154905082565b6003602052805f5260405f205f915054906101000a900460ff1681565b5f80fd5b60038110610a9b575f80fd5b50565b5f81359050610aac81610a8f565b92915050565b60028110610abe575f80fd5b50565b5f81359050610acf81610ab2565b92915050565b5f8060408385031215610aeb57610aea610a8b565b5b5f610af885828601610a9e565b9250506020610b0985828601610ac1565b9150509250929050565b5f819050919050565b610b2581610b13565b82525050565b5f602082019050610b3e5f830184610b1c565b92915050565b5f73ffffffffffffffffffffffffffffffffffffffff82169050919050565b5f610b6d82610b44565b9050919050565b610b7d81610b63565b82525050565b5f602082019050610b965f830184610b74565b92915050565b610ba581610b63565b8114610baf575f80fd5b50565b5f81359050610bc081610b9c565b92915050565b5f60208284031215610bdb57610bda610a8b565b5b5f610be884828501610bb2565b91505092915050565b7f4e487b71000000000000000000000000000000000000000000000000000000005f52602160045260245ffd5b60038110610c2f57610c2e610bf1565b5b50565b5f819050610c3f82610c1e565b919050565b5f610c4e82610c32565b9050919050565b610c5e81610c44565b82525050565b60028110610c7557610c74610bf1565b5b50565b5f819050610c8582610c64565b919050565b5f610c9482610c78565b9050919050565b610ca481610c8a565b82525050565b5f8115159050919050565b610cbe81610caa565b82525050565b5f608082019050610cd75f830187610c55565b610ce46020830186610c9b565b610cf16040830185610b1c565b610cfe6060830184610cb5565b95945050505050565b5f604082019050610d1a5f830185610b1c565b610d276020830184610b1c565b9392505050565b5f602082019050610d415f830184610cb5565b92915050565b5f82825260208201905092915050565b7f56656869636c65206973206e6f74207061726b65642e000000000000000000005f82015250565b5f610d8b601683610d47565b9150610d9682610d57565b602082019050919050565b5f6020820190508181035f830152610db881610d7f565b9050919050565b7f4e487b71000000000000000000000000000000000000000000000000000000005f52601160045260245ffd5b5f610df682610b13565b9150610e0183610b13565b9250828203905081811115610e1957610e18610dbf565b5b92915050565b7f4e487b71000000000000000000000000000000000000000000000000000000005f52601260045260245ffd5b5f610e5682610b13565b9150610e6183610b13565b925082610e7157610e70610e1f565b5b828204905092915050565b5f610e8682610b13565b9150610e9183610b13565b9250828201905080821115610ea957610ea8610dbf565b5b92915050565b5f610eb982610b13565b9150610ec483610b13565b9250828202610ed281610b13565b91508282048414831517610ee957610ee8610dbf565b5b5092915050565b7f496e73756666696369656e742066756e647320746f2070617920666f722070615f8201527f726b696e672e0000000000000000000000000000000000000000000000000000602082015250565b5f610f4a602683610d47565b9150610f5582610ef0565b604082019050919050565b5f6020820190508181035f830152610f7781610f3e565b9050919050565b7f596f752061726520616c7265616479207061726b65642e0000000000000000005f82015250565b5f610fb2601783610d47565b9150610fbd82610f7e565b602082019050919050565b5f6020820190508181035f830152610fdf81610fa6565b9050919050565b7f4e6f20617661696c61626c6520736c6f747320666f72207468697320766568695f8201527f636c65207479706520616e64206c616e652e0000000000000000000000000000602082015250565b5f611040603283610d47565b915061104b82610fe6565b604082019050919050565b5f6020820190508181035f83015261106d81611034565b905091905056fea264697066735822122059188ac518003532ab0abc13b6a7f7001fda0fff300fb6ec39c7e79a6f971ad064736f6c63430008150033",
  "immutableReferences": {},
  "source": "// SPDX-License-Identifier: MIT\r\npragma solidity ^0.8.0;\r\n\r\ncontract ParkingSystem {\r\n    \r\n    enum VehicleType { Bike, Car, Truck }\r\n    enum LaneType { Normal, Fastlane }\r\n\r\n    struct Slot {\r\n        uint availableSlots;\r\n        uint pricePerHour;  //in wei\r\n    }\r\n\r\n    struct Entry {\r\n        VehicleType vehicleType;\r\n        LaneType laneType;\r\n        uint entryTime;\r\n        bool isParked;\r\n    }\r\n\r\n    // Owner of the contract (parking system)\r\n    address public owner;\r\n\r\n    // Parking slots by vehicle type and lane type\r\n    mapping(VehicleType => mapping(LaneType => Slot)) public parkingSlots;\r\n\r\n    // Map vehicle addresses to their entries\r\n    mapping(address => Entry) public vehicleEntries;\r\n\r\n    // Track the wallet address that is currently parked\r\n    mapping(address => bool) public hasParked;\r\n\r\n    constructor() {\r\n        // Set contract owner\r\n        owner = msg.sender;\r\n        \r\n        // Initialize parking slots \r\n        parkingSlots[VehicleType.Bike][LaneType.Normal] = Slot(10, 1 ether);\r\n        parkingSlots[VehicleType.Bike][LaneType.Fastlane] = Slot(5, 2 ether);\r\n\r\n        parkingSlots[VehicleType.Car][LaneType.Normal] = Slot(20, 2 ether);\r\n        parkingSlots[VehicleType.Car][LaneType.Fastlane] = Slot(10, 4 ether);\r\n\r\n        parkingSlots[VehicleType.Truck][LaneType.Normal] = Slot(5, 5 ether);\r\n        parkingSlots[VehicleType.Truck][LaneType.Fastlane] = Slot(2, 10 ether);\r\n    }\r\n\r\n    // View available slots for a vehicle type and lane\r\n    function viewAvailableSlots(VehicleType _vehicleType, LaneType _laneType) public view returns (uint) {\r\n        return parkingSlots[_vehicleType][_laneType].availableSlots;\r\n    }\r\n\r\n    // Vehicle entry\r\n    function enterParking(VehicleType _vehicleType, LaneType _laneType) public {\r\n        require(!hasParked[msg.sender], \"You are already parked.\");\r\n        require(parkingSlots[_vehicleType][_laneType].availableSlots > 0, \"No available slots for this vehicle type and lane.\");\r\n\r\n        vehicleEntries[msg.sender] = Entry({\r\n            vehicleType: _vehicleType,\r\n            laneType: _laneType,\r\n            entryTime: block.timestamp,\r\n            isParked: true\r\n        });\r\n\r\n        hasParked[msg.sender] = true; // Mark the wallet as having parked\r\n\r\n        // Update available slots\r\n        parkingSlots[_vehicleType][_laneType].availableSlots -= 1;\r\n    }\r\n\r\n    // Vehicle exit and payment\r\n    function exitParking() public payable {\r\n        require(vehicleEntries[msg.sender].isParked, \"Vehicle is not parked.\");\r\n        \r\n        Entry memory entryDetails = vehicleEntries[msg.sender];\r\n        uint parkingDuration = block.timestamp - entryDetails.entryTime;\r\n        uint hoursParked = parkingDuration / 3600 + 1;  // Charge per hour, minimum 1 hour\r\n\r\n        uint charge = hoursParked * parkingSlots[entryDetails.vehicleType][entryDetails.laneType].pricePerHour;\r\n\r\n        require(msg.value >= charge, \"Insufficient funds to pay for parking.\");\r\n\r\n        // Transfer payment to the parking owner\r\n        payable(owner).transfer(charge);\r\n\r\n        // Refund if overpaid\r\n        if (msg.value > charge) {\r\n            payable(msg.sender).transfer(msg.value - charge);\r\n        }\r\n\r\n        // Update available slots\r\n        parkingSlots[entryDetails.vehicleType][entryDetails.laneType].availableSlots += 1;\r\n\r\n        // Remove vehicle entry\r\n        delete vehicleEntries[msg.sender];\r\n        hasParked[msg.sender] = false; // Mark the wallet as not having parked\r\n    }\r\n}\r\n",
  "sourcePath": "C:\\Users\\ANJALI LAPTOP\\Desktop\\Kalpavriksha\\parkingTicketingSystem\\contracts\\ParkingTicketingSystem.sol",
  "compiler": {
    "name": "solc",
    "version": "0.8.21+commit.d9974bed.Emscripten.clang"
  },
  "schemaVersion": "3.4.16",
  "updatedAt": "2024-09-16T12:00:07.514Z",
  "networkType": "ethereum",
  "devdoc": {
    "kind": "dev",
    "methods": {},
    "version": 1
  },
  "userdoc": {
    "kind": "user",
    "methods": {},
    "version": 1
  }
}