{
  "contractName": "ParkingSystem",
  "abi": [
    {
      "inputs": [
        {
          "internalType": "uint256",
          "name": "_hourlyRate",
          "type": "uint256"
        }
      ],
      "stateMutability": "nonpayable",
      "type": "constructor"
    },
    {
      "anonymous": false,
      "inputs": [
        {
          "indexed": false,
          "internalType": "uint256",
          "name": "ticketId",
          "type": "uint256"
        }
      ],
      "name": "TicketIssued",
      "type": "event"
    },
    {
      "inputs": [],
      "name": "hourlyRate",
      "outputs": [
        {
          "internalType": "uint256",
          "name": "",
          "type": "uint256"
        }
      ],
      "stateMutability": "view",
      "type": "function",
      "constant": true
    },
    {
      "inputs": [],
      "name": "owner",
      "outputs": [
        {
          "internalType": "address",
          "name": "",
          "type": "address"
        }
      ],
      "stateMutability": "view",
      "type": "function",
      "constant": true
    },
    {
      "inputs": [],
      "name": "ticketCounter",
      "outputs": [
        {
          "internalType": "uint256",
          "name": "",
          "type": "uint256"
        }
      ],
      "stateMutability": "view",
      "type": "function",
      "constant": true
    },
    {
      "inputs": [
        {
          "internalType": "uint256",
          "name": "",
          "type": "uint256"
        }
      ],
      "name": "tickets",
      "outputs": [
        {
          "internalType": "uint256",
          "name": "id",
          "type": "uint256"
        },
        {
          "internalType": "string",
          "name": "licensePlate",
          "type": "string"
        },
        {
          "internalType": "uint256",
          "name": "issuedAt",
          "type": "uint256"
        },
        {
          "internalType": "uint256",
          "name": "paidAmount",
          "type": "uint256"
        },
        {
          "internalType": "bool",
          "name": "isActive",
          "type": "bool"
        }
      ],
      "stateMutability": "view",
      "type": "function",
      "constant": true
    },
    {
      "inputs": [],
      "name": "totalRevenue",
      "outputs": [
        {
          "internalType": "uint256",
          "name": "",
          "type": "uint256"
        }
      ],
      "stateMutability": "view",
      "type": "function",
      "constant": true
    },
    {
      "inputs": [
        {
          "internalType": "string",
          "name": "_licensePlate",
          "type": "string"
        }
      ],
      "name": "parkVehicle",
      "outputs": [
        {
          "internalType": "uint256",
          "name": "",
          "type": "uint256"
        }
      ],
      "stateMutability": "nonpayable",
      "type": "function"
    },
    {
      "inputs": [
        {
          "internalType": "uint256",
          "name": "_ticketId",
          "type": "uint256"
        }
      ],
      "name": "unParkVehicle",
      "outputs": [
        {
          "internalType": "bool",
          "name": "",
          "type": "bool"
        }
      ],
      "stateMutability": "nonpayable",
      "type": "function"
    },
    {
      "inputs": [
        {
          "internalType": "uint256",
          "name": "_ticketId",
          "type": "uint256"
        }
      ],
      "name": "payForParking",
      "outputs": [],
      "stateMutability": "payable",
      "type": "function",
      "payable": true
    },
    {
      "inputs": [
        {
          "internalType": "uint256",
          "name": "_newRate",
          "type": "uint256"
        }
      ],
      "name": "adjustHourlyRate",
      "outputs": [],
      "stateMutability": "nonpayable",
      "type": "function"
    },
    {
      "inputs": [],
      "name": "withdrawRevenue",
      "outputs": [],
      "stateMutability": "nonpayable",
      "type": "function"
    }
  ],
  "bytecode": "0x608060405234801562000010575f80fd5b50604051620012fe380380620012fe8339818101604052810190620000369190620000c0565b3360035f6101000a81548173ffffffffffffffffffffffffffffffffffffffff021916908373ffffffffffffffffffffffffffffffffffffffff1602179055508060028190555050620000f0565b5f80fd5b5f819050919050565b6200009c8162000088565b8114620000a7575f80fd5b50565b5f81519050620000ba8162000091565b92915050565b5f60208284031215620000d857620000d762000084565b5b5f620000e784828501620000aa565b91505092915050565b61120080620000fe5f395ff3fe608060405260043610610090575f3560e01c80638c4d59d0116100585780638c4d59d01461016c5780638da5cb5b14610196578063bf2d9e0b146101c0578063d48e9173146101ea578063dc36a5601461021257610090565b80634e434954146100945780634f573cb2146100d057806350b44712146100e657806359a7b3fe146101265780636d581c2314610150575b5f80fd5b34801561009f575f80fd5b506100ba60048036038101906100b5919061090b565b61024e565b6040516100c7919061096a565b60405180910390f35b3480156100db575f80fd5b506100e461029b565b005b3480156100f1575f80fd5b5061010c600480360381019061010791906109ad565b61039a565b60405161011d959493929190610a6c565b60405180910390f35b348015610131575f80fd5b5061013a61045d565b604051610147919061096a565b60405180910390f35b61016a600480360381019061016591906109ad565b610463565b005b348015610177575f80fd5b506101806105ad565b60405161018d919061096a565b60405180910390f35b3480156101a1575f80fd5b506101aa6105b3565b6040516101b79190610b03565b60405180910390f35b3480156101cb575f80fd5b506101d46105d8565b6040516101e1919061096a565b60405180910390f35b3480156101f5575f80fd5b50610210600480360381019061020b91906109ad565b6105de565b005b34801561021d575f80fd5b50610238600480360381019061023391906109ad565b610677565b6040516102459190610b1c565b60405180910390f35b5f806102598361070a565b90507f78c4766985bde44327adbca7fefe22ab95d9d1e949c3f08de30e206e78c09acb8160405161028a919061096a565b60405180910390a180915050919050565b60035f9054906101000a900473ffffffffffffffffffffffffffffffffffffffff1673ffffffffffffffffffffffffffffffffffffffff163373ffffffffffffffffffffffffffffffffffffffff161461032a576040517f08c379a000000000000000000000000000000000000000000000000000000000815260040161032190610ba5565b60405180910390fd5b60035f9054906101000a900473ffffffffffffffffffffffffffffffffffffffff1673ffffffffffffffffffffffffffffffffffffffff166108fc60045490811502906040515f60405180830381858888f19350505050158015610390573d5f803e3d5ffd5b505f600481905550565b5f602052805f5260405f205f91509050805f0154908060010180546103be90610bf0565b80601f01602080910402602001604051908101604052809291908181526020018280546103ea90610bf0565b80156104355780601f1061040c57610100808354040283529160200191610435565b820191905f5260205f20905b81548152906001019060200180831161041857829003601f168201915b505050505090806002015490806003015490806004015f9054906101000a900460ff16905085565b60025481565b5f805f8381526020019081526020015f2090505f1515816004015f9054906101000a900460ff161515146104cc576040517f08c379a00000000000000000000000000000000000000000000000000000000081526004016104c390610c6a565b60405180910390fd5b5f816003015414610512576040517f08c379a000000000000000000000000000000000000000000000000000000000815260040161050990610cd2565b60405180910390fd5b5f610e108260020154426105269190610d1d565b6105309190610d7d565b90505f600254826105419190610dad565b905080341015610586576040517f08c379a000000000000000000000000000000000000000000000000000000000815260040161057d90610e38565b60405180910390fd5b3483600301819055503460045f8282546105a09190610e56565b9250508190555050505050565b60015481565b60035f9054906101000a900473ffffffffffffffffffffffffffffffffffffffff1681565b60045481565b60035f9054906101000a900473ffffffffffffffffffffffffffffffffffffffff1673ffffffffffffffffffffffffffffffffffffffff163373ffffffffffffffffffffffffffffffffffffffff161461066d576040517f08c379a000000000000000000000000000000000000000000000000000000000815260040161066490610ba5565b60405180910390fd5b8060028190555050565b5f805f8381526020019081526020015f206004015f9054906101000a900460ff166106d7576040517f08c379a00000000000000000000000000000000000000000000000000000000081526004016106ce90610ef9565b60405180910390fd5b5f805f8481526020019081526020015f206004015f6101000a81548160ff02191690831515021790555060019050919050565b5f60015f81548092919061071d90610f17565b91905055506040518060a0016040528060015481526020018381526020014281526020015f8152602001600115158152505f8060015481526020019081526020015f205f820151815f0155602082015181600101908161077d91906110fb565b5060408201518160020155606082015181600301556080820151816004015f6101000a81548160ff0219169083151502179055509050506001549050919050565b5f604051905090565b5f80fd5b5f80fd5b5f80fd5b5f80fd5b5f601f19601f8301169050919050565b7f4e487b71000000000000000000000000000000000000000000000000000000005f52604160045260245ffd5b61081d826107d7565b810181811067ffffffffffffffff8211171561083c5761083b6107e7565b5b80604052505050565b5f61084e6107be565b905061085a8282610814565b919050565b5f67ffffffffffffffff821115610879576108786107e7565b5b610882826107d7565b9050602081019050919050565b828183375f83830152505050565b5f6108af6108aa8461085f565b610845565b9050828152602081018484840111156108cb576108ca6107d3565b5b6108d684828561088f565b509392505050565b5f82601f8301126108f2576108f16107cf565b5b813561090284826020860161089d565b91505092915050565b5f602082840312156109205761091f6107c7565b5b5f82013567ffffffffffffffff81111561093d5761093c6107cb565b5b610949848285016108de565b91505092915050565b5f819050919050565b61096481610952565b82525050565b5f60208201905061097d5f83018461095b565b92915050565b61098c81610952565b8114610996575f80fd5b50565b5f813590506109a781610983565b92915050565b5f602082840312156109c2576109c16107c7565b5b5f6109cf84828501610999565b91505092915050565b5f81519050919050565b5f82825260208201905092915050565b5f5b83811015610a0f5780820151818401526020810190506109f4565b5f8484015250505050565b5f610a24826109d8565b610a2e81856109e2565b9350610a3e8185602086016109f2565b610a47816107d7565b840191505092915050565b5f8115159050919050565b610a6681610a52565b82525050565b5f60a082019050610a7f5f83018861095b565b8181036020830152610a918187610a1a565b9050610aa0604083018661095b565b610aad606083018561095b565b610aba6080830184610a5d565b9695505050505050565b5f73ffffffffffffffffffffffffffffffffffffffff82169050919050565b5f610aed82610ac4565b9050919050565b610afd81610ae3565b82525050565b5f602082019050610b165f830184610af4565b92915050565b5f602082019050610b2f5f830184610a5d565b92915050565b7f4f6e6c7920746865206f776e65722063616e20706572666f726d2074686973205f8201527f616374696f6e2e00000000000000000000000000000000000000000000000000602082015250565b5f610b8f6027836109e2565b9150610b9a82610b35565b604082019050919050565b5f6020820190508181035f830152610bbc81610b83565b9050919050565b7f4e487b71000000000000000000000000000000000000000000000000000000005f52602260045260245ffd5b5f6002820490506001821680610c0757607f821691505b602082108103610c1a57610c19610bc3565b5b50919050565b7f56656869636c65206d75737420626520756e7061726b65642066697273742e005f82015250565b5f610c54601f836109e2565b9150610c5f82610c20565b602082019050919050565b5f6020820190508181035f830152610c8181610c48565b9050919050565b7f5061726b696e672066656520616c726561647920706169642e000000000000005f82015250565b5f610cbc6019836109e2565b9150610cc782610c88565b602082019050919050565b5f6020820190508181035f830152610ce981610cb0565b9050919050565b7f4e487b71000000000000000000000000000000000000000000000000000000005f52601160045260245ffd5b5f610d2782610952565b9150610d3283610952565b9250828203905081811115610d4a57610d49610cf0565b5b92915050565b7f4e487b71000000000000000000000000000000000000000000000000000000005f52601260045260245ffd5b5f610d8782610952565b9150610d9283610952565b925082610da257610da1610d50565b5b828204905092915050565b5f610db782610952565b9150610dc283610952565b9250828202610dd081610952565b91508282048414831517610de757610de6610cf0565b5b5092915050565b7f496e73756666696369656e74207061796d656e742e00000000000000000000005f82015250565b5f610e226015836109e2565b9150610e2d82610dee565b602082019050919050565b5f6020820190508181035f830152610e4f81610e16565b9050919050565b5f610e6082610952565b9150610e6b83610952565b9250828201905080821115610e8357610e82610cf0565b5b92915050565b7f5469636b6574206973206e6f7420616374697665206f7220646f6573206e6f745f8201527f2065786973742e00000000000000000000000000000000000000000000000000602082015250565b5f610ee36027836109e2565b9150610eee82610e89565b604082019050919050565b5f6020820190508181035f830152610f1081610ed7565b9050919050565b5f610f2182610952565b91507fffffffffffffffffffffffffffffffffffffffffffffffffffffffffffffffff8203610f5357610f52610cf0565b5b600182019050919050565b5f819050815f5260205f209050919050565b5f6020601f8301049050919050565b5f82821b905092915050565b5f60088302610fba7fffffffffffffffffffffffffffffffffffffffffffffffffffffffffffffffff82610f7f565b610fc48683610f7f565b95508019841693508086168417925050509392505050565b5f819050919050565b5f610fff610ffa610ff584610952565b610fdc565b610952565b9050919050565b5f819050919050565b61101883610fe5565b61102c61102482611006565b848454610f8b565b825550505050565b5f90565b611040611034565b61104b81848461100f565b505050565b5b8181101561106e576110635f82611038565b600181019050611051565b5050565b601f8211156110b35761108481610f5e565b61108d84610f70565b8101602085101561109c578190505b6110b06110a885610f70565b830182611050565b50505b505050565b5f82821c905092915050565b5f6110d35f19846008026110b8565b1980831691505092915050565b5f6110eb83836110c4565b9150826002028217905092915050565b611104826109d8565b67ffffffffffffffff81111561111d5761111c6107e7565b5b6111278254610bf0565b611132828285611072565b5f60209050601f831160018114611163575f8415611151578287015190505b61115b85826110e0565b8655506111c2565b601f19841661117186610f5e565b5f5b8281101561119857848901518255600182019150602085019450602081019050611173565b868310156111b557848901516111b1601f8916826110c4565b8355505b6001600288020188555050505b50505050505056fea26469706673582212200ac6618bd447dfb436109973a12fb85a38c20edd9f1660101d73cf0a0eef7f4c64736f6c63430008150033",
  "immutableReferences": {},
  "source": "// SPDX-License-Identifier: MIT\r\npragma solidity ^0.8.0;\r\n\r\n// Interface defining basic functions for parking management\r\ninterface IParkingManagement {\r\n    function parkVehicle(string memory _licensePlate) external returns (uint256);\r\n    function unParkVehicle(uint256 _ticketId) external returns (bool);\r\n    function payForParking(uint256 _ticketId) external payable;\r\n}\r\n\r\n// Abstract contract to define the blueprint for a ParkingTicket\r\nabstract contract ParkingTicket {\r\n    struct Ticket {\r\n        uint256 id;\r\n        string licensePlate;\r\n        uint256 issuedAt;\r\n        uint256 paidAmount;\r\n        bool isActive;\r\n    }\r\n\r\n    mapping(uint256 => Ticket) public tickets;\r\n    uint256 public ticketCounter;\r\n\r\n    function createTicket(string memory _licensePlate) internal returns (uint256) {\r\n        ticketCounter++;\r\n        tickets[ticketCounter] = Ticket(ticketCounter, _licensePlate, block.timestamp, 0, true);\r\n        return ticketCounter;\r\n    }\r\n}\r\n\r\n// Main contract implementing the parking management system\r\ncontract ParkingSystem is IParkingManagement, ParkingTicket {\r\n    uint256 public hourlyRate;\r\n    address public owner;\r\n    uint256 public totalRevenue;\r\n\r\n    constructor(uint256 _hourlyRate) {\r\n        owner = msg.sender;\r\n        hourlyRate = _hourlyRate;\r\n    }\r\n\r\n    modifier onlyOwner() {\r\n        require(msg.sender == owner, \"Only the owner can perform this action.\");\r\n        _;\r\n    }\r\n\r\n    // Function to park a vehicle and issue a parking ticket]\r\n    event TicketIssued(uint256 ticketId);\r\n\r\n    function parkVehicle(string memory _licensePlate) external override returns (uint256) {\r\n        uint256 ticketId = createTicket(_licensePlate);\r\n        emit TicketIssued(ticketId);\r\n        return ticketId;\r\n    }\r\n\r\n    // Function to unpark a vehicle and calculate the parking fee\r\n    function unParkVehicle(uint256 _ticketId) external override returns (bool) {\r\n        require(tickets[_ticketId].isActive, \"Ticket is not active or does not exist.\");\r\n        tickets[_ticketId].isActive = false;\r\n        return true;\r\n    }\r\n\r\n    // Function to pay for parking based on time spent\r\n    function payForParking(uint256 _ticketId) external payable override {\r\n        Ticket storage ticket = tickets[_ticketId];\r\n        require(ticket.isActive == false, \"Vehicle must be unparked first.\");\r\n        require(ticket.paidAmount == 0, \"Parking fee already paid.\");\r\n        \r\n        uint256 timeSpent = (block.timestamp - ticket.issuedAt) / 1 hours;\r\n        uint256 amountDue = timeSpent * hourlyRate;\r\n        require(msg.value >= amountDue, \"Insufficient payment.\");\r\n\r\n        ticket.paidAmount = msg.value;\r\n        totalRevenue += msg.value;\r\n    }\r\n\r\n    // Function to adjust the hourly rate by the owner\r\n    function adjustHourlyRate(uint256 _newRate) external onlyOwner {\r\n        hourlyRate = _newRate;\r\n    }\r\n\r\n    // Function to withdraw the revenue by the owner\r\n    function withdrawRevenue() external onlyOwner {\r\n        payable(owner).transfer(totalRevenue);\r\n        totalRevenue = 0;\r\n    }\r\n}\r\n",
  "sourcePath": "C:\\Users\\ANJALI LAPTOP\\Desktop\\parkingTicketingSystem\\contracts\\ParkingTicketingSystem.sol",
  "compiler": {
    "name": "solc",
    "version": "0.8.21+commit.d9974bed.Emscripten.clang"
  },
  "schemaVersion": "3.4.16",
  "updatedAt": "2024-09-09T07:55:14.934Z",
  "networkType": "ethereum",
  "devdoc": {
    "kind": "dev",
    "methods": {},
    "version": 1
  },
  "userdoc": {
    "kind": "user",
    "methods": {},
    "version": 1
  }
}